:020000041A00E0
:10000000008000103103001A7901001A7B01001AE8
:100010007D01001A7F01001A8101001A5E75FF53ED
:100020000000000000000000000000008301001A32
:100030008501001A000000008701001A7D13001AD4
:10004000BB01001ABB01001ABB01001A000000002E
:10005000BB01001ABB01001ABB01001ABB01001A48
:10006000A913001ABB01001ABB01001ABB01001A38
:10007000BB01001ABB01001ABB01001ABB01001A28
:10008000BB01001ABB01001ABB01001ABB01001A18
:10009000BB01001ABB01001ABB01001ABB01001A08
:1000A000BB01001ABB01001ABB01001ABB01001AF8
:1000B000BB01001ABB01001ABB01001ABB01001AE8
:1000C000BB01001ABB01001ABB01001ABB01001AD8
:1000D000BB01001ABB01001ABB01001ABB01001AC8
:1000E000BB01001ABB01001ABB01001ABB01001AB8
:1000F00000000000BB01001ABB01001ABB01001A7E
:1001000000000000BB01001ABB01001ABB01001A6D
:10011000BB01001AB81A001A0000001048000000C5
:10012000B81A001A0000081000000000B81A001ADF
:100130000000002000000000B81A001A0080002013
:1001400000000000B81A001A00C0002000000000E3
:100150004800001028000000000008100000000007
:1001600000000020000000000080002000000000CF
:1001700000C0002000000000FEE7FEE7FEE7FEE70B
:10018000FEE7FEE7FEE7FEE7FEE7002393420AD222
:1001900010B450F8044B41F8044B04339342F8D3A5
:1001A0005DF8044B70477047002303E0002240F8DD
:1001B000042B04338B42F9D37047FEE7FFFFFFFFA8
:1001C000FFFFFFFFFFFFFFFFFFFFFFFFFFFFFFFF3F
:1001D000FFFFFFFFFFFFFFFFFFFFFFFFFFFFFFFF2F
:1001E000FFFFFFFFFFFFFFFFFFFFFFFFFFFFFFFF1F
:1001F000FFFFFFFFFFFFFFFFFFFFFFFFFFFFFFFF0F
:10020000FFFFFFFFFFFFFFFFFFFFFFFFFFFFFFFFFE
:10021000FFFFFFFFFFFFFFFFFFFFFFFFFFFFFFFFEE
:10022000FFFFFFFFFFFFFFFFFFFFFFFFFFFFFFFFDE
:10023000FFFFFFFFFFFFFFFFFFFFFFFFFFFFFFFFCE
:10024000FFFFFFFFFFFFFFFFFFFFFFFFFFFFFFFFBE
:10025000FFFFFFFFFFFFFFFFFFFFFFFFFFFFFFFFAE
:10026000FFFFFFFFFFFFFFFFFFFFFFFFFFFFFFFF9E
:10027000FFFFFFFFFFFFFFFFFFFFFFFFFFFFFFFF8E
:10028000FFFFFFFFFFFFFFFFFFFFFFFFFFFFFFFF7E
:10029000FFFFFFFFFFFFFFFFFFFFFFFFFFFFFFFF6E
:1002A000FFFFFFFFFFFFFFFFFFFFFFFFFFFFFFFF5E
:1002B000FFFFFFFFFFFFFFFFFFFFFFFFFFFFFFFF4E
:1002C000FFFFFFFFFFFFFFFFFFFFFFFFFFFFFFFF3E
:1002D000FFFFFFFFFFFFFFFFFFFFFFFFFFFFFFFF2E
:1002E000FFFFFFFFFFFFFFFFFFFFFFFFFFFFFFFF1E
:1002F000FFFFFFFFFFFFFFFFFFFFFFFFFFFFFFFF0E
:1003000008B501F05FF800F059F800F069F800F066
:100310000DF800F00AF800F007F800F067F8142074
:10032000002101F089F8F0E7704770477047704787
:1003300010B572B6194B1A4AC3F80021194AC3F80E
:100340000421002305E0184A4FF0FF3142F8231042
:100350000133072BF7D962B6144B07E003F10C0405
:100360009A6859681868FFF710FF2346104A9342AD
:10037000F4D306E01C46596854F8080BFFF714FF45
:1003800023460C4A9342F5D300F08CFE01F0E8F9C5
:10039000FFF7CDFFFFF7B4FF30BFFDE700300540AA
:1003A0000010DF10FFF7DF0180E200E01401001A07
:1003B0005001001A7801001A704770474FF0E02290
:1003C000D2F8FC3D43F08073C2F8FC3D034B0022A1
:1003D0005A601A6842F001021A607047001000E08B
:1003E000014B00225A607047001000E0014B586832
:1003F000704700BF001000E00022052A1BD810B58E
:100400000D4B13F812E003EB420393F801C00B4BC2
:100410000EF5006453F82410012000FA0CF001439B
:1004200043F8241003EB4E13002103F80C100132A3
:10043000052AE5D910BD70477018001A00400F401A
:100440000023032B19D810B40C4911F8132001EB29
:10045000430191F801C00A4C02F5006254F82210E1
:10046000012000FA0CF021EA000144F822100133C7
:10047000032BE9D95DF8044B704770476818001AE0
:1004800000400F400023082B19D810B40C4911F874
:10049000132001EB430191F801C00A4C02F5006200
:1004A00054F82210012000FA0CF021EA000144F86F
:1004B00022100133082BE9D95DF8044B70477047CF
:1004C0005418001A00400F4010B582B0084C69461D
:1004D000204600F0EBF8074A6946204600F006F98E
:1004E00000226946204600F01AF902B010BD00BF94
:1004F00000300E40801A060010B50B4C204600F06C
:1005000073FC636823F004036360236823F0FF0334
:1005100043F0070323600549204600F044FC63686C
:1005200043F00203636010BD00500C40A086010040
:1005300008B5002000F0E6FB044B40F60802C3F8C3
:10054000842C0349002000F0F1FB08BD0060084046
:1005500040420F0010B5074C204600F00BFD4FF451
:10056000E131204600F030FD0323E3600123E36521
:1005700010BD00BF00100C4008B5FFF7EBFF0948A5
:1005800000F0AEFBFFF77EFFFFF79EFFFFF7B4FF23
:10059000FFF7CEFFFFF730FFFFF752FF00F0C6F87E
:1005A00008BD00BF00400F4000238B4212D230B480
:1005B00000EB830C10F823409CF80120BCF802509B
:1005C00002EB4412044C44F8225001338B42EFD327
:1005D00030BC7047704700BF0060084008B51D215F
:1005E0000148FFF7E1FF08BD8418001A10B5174A4B
:1005F000D2F8203123F4704343F41043C2F8203181
:10060000D2F8243123F4704343F41043C2F8243168
:1006100001220F49062000F017FC00244CB10B4BBF
:100620005A6822F00C025A605A6842F003025A607B
:1006300010BD084800EB840101238A78497810F83E
:10064000240000F0A7FA0134E8E700BF00300440BE
:1006500000CB280CF818001A08B5FFF7BFFFFFF70A
:10066000C5FF08BD034B984201D00320704704200A
:10067000704700BF00400E4070B50D4614461E4640
:10068000FFF7F0FF00F006FB55B106FB04F404EBA6
:1006900040006400B0FBF4F0C0B20138C0B270BDDD
:1006A00004EB840304EB4304F1E7000038B505468E
:1006B0000C46FFF7D7FF01231A46194600F0B2FA9D
:1006C0000021E960084A2260217161710B232846EC
:1006D000FFF7D2FF000240F4001023795B0403F41B
:1006E000602303432B6038BD801A060070B50546B1
:1006F0000E46046824F46F2424F470640A600B79B5
:10070000C3F10B03DBB24979FFF7B6FF44EA0024DB
:1007100033795B0403F4602323432B6070BD08B579
:100720000A710A68FFF7E2FF08BD000008B56920FA
:1007300000F0B0FA014B186008BD00BF480000107F
:1007400070B586460B6813F0800F02D023F040038B
:100750000B60754601243CE04B6902FB03F3B3FBDD
:10076000F4F31EE01846BEEB000628D4B54207D9C4
:100770008C600CF10105CD600A618861CB61354662
:100780000132B2F5807F1CDC0E6816F0400FE3D01A
:100790000CF1010302FA03F3486900FB03F3B3FB16
:1007A000F4F30F488342EBD90E48834209D816F080
:1007B000800FD7D10CF1010023FA00F0D3E7764285
:1007C000D4E70CF1010CBCF1030F01DC0122D8E7E6
:1007D0000134042C02DC4FF0000CF4E770BD00BFC4
:1007E000FF5E4C0900D01213F0B59DB005460C46D3
:1007F0006022002101A800F0DBFF802301936369E0
:10080000069323798DF8083001A92846FFF798FF51
:10081000079BAB422AD0EB1A31D41E461993119B89
:1008200023F0400311936369169323798DF84830C0
:1008300011A92846FFF784FF179BAB4221D0EB1A82
:1008400027D41F461B932B4B9D4224D90F9BED1A97
:1008500034D41A95AE423BDCBE4231DC01AD0FCD43
:100860000FC495E80F0084E80F0006E001AD0FCD3E
:100870000FC495E80F0084E80F001DB0F0BD5B4287
:10088000CBE711AD0FCD0FC495E80F0084E80F0042
:10089000F3E75B42D5E74023099363690E9309A907
:1008A0002846FFF74DFF0F9BAB42CFD109AD0FCDCF
:1008B0000FC495E80F0084E80F00DEE76D42C8E73B
:1008C00011AD0FCD0FC495E80F0084E80F00D4E7F9
:1008D000AF4207DB09AD0FCD0FC495E80F0084E8E8
:1008E0000F00CAE711AD0FCD0FC495E80F0084E8E3
:1008F0000F00C2E780778E06844600231C201C2848
:1009000020D110B402E001331C2818D103EB4301BD
:100910000D4A02EB41021179814210D003EB4302F0
:10092000094C34F812206245EDD803EB4304064A23
:1009300002EB440252886245E5D30846E4E75DF8DD
:10094000044B7047704700BF0419001A82B04FF47F
:100950007A7301930D4A936923F0020192698A42E6
:1009600001D00A4A916123F00303094A1168094A38
:10097000914201D943F00403044A9361019B5A1E3A
:100980000192002BFAD102B0704700BF0000054071
:100990007C18001AFF2C31011230054B53F820004F
:1009A00010F0010F02D1C0F30460704711207047AE
:1009B0000000054000F11202034B53F82220034BC4
:1009C000185C00EA9200704700000540FC18001A0D
:1009D00008B510280AD8DFE800F0440B0D182109EB
:1009E00024272A2D09093034383C4000002008BD56
:1009F0001E48FCE71E4BD3F82C3103F00703042BF1
:100A000001D01C48F3E70020F1E7194BD3F82C3153
:100A100003F00703042B27D01648E8E7164B1868A5
:100A2000E5E7164B1868E2E7154B1868DFE7144B4B
:100A30005868DCE700F068F8D9E7002100F098F882
:100A4000D5E7012100F094F8D1E7022100F090F8F9
:100A5000CDE7032100F08CF8C9E7042100F088F805
:100A6000C5E74FF40040C2E70648C0E7001BB700E7
:100A70000030044040787D018018001A7C18001A6C
:100A80004C00001080F0FA0238B505460C46087993
:100A9000FFF79EFF6061194B2B44194A934221D8FE
:100AA00018B3802323600023A360E360B5FBF0F359
:100AB0002361144A954203D900FB03F3AB4207D0EC
:100AC00021462846FFF790FEA3688BB1013BA36047
:100AD000236983B1E2680AB1013AE260013B236114
:100AE000002038BD4FF0FF30FBE74FF0FF30F8E754
:100AF0004FF0FF30F5E74FF0FF30F2E7103A6BFFB1
:100B00001005940BFF5E4C0930B583B0164D6C6C2C
:100B1000C4F30360FFF75CFF0146144B0193286C9C
:100B200010F001001DD0C4F30742C4F30133C4F335
:100B30000120013201330830684410F8040C14F02D
:100B4000800F0AD114F0400F07D14000B2FBF0F241
:100B5000B1FBF3F101FB02F003E0B1FBF3F302FBA5
:100B600003F003B030BD00BF0000054001020408DF
:100B700038B50C460846FFF70FFF05462046FFF73D
:100B800019FF04462846FFF723FF0134B0FBF4F0B9
:100B900038BD000030B400F1160C4FEA8C0C0CF19B
:100BA000804C0CF5A02CDCF804401B2813D811292C
:100BB0001AD00E4D25400AB145F400650BB145F041
:100BC000010545EA01651630800000F1804000F51E
:100BD000A020456008E044F001041630800000F1D8
:100BE000804000F5A020446030BC7047FEF7FFE075
:100BF0001B280DD800F116039B0003F1804303F579
:100C0000A023586810F0010F04D1C0F304607047AE
:100C1000112070471120704708B5FFF7E9FFFFF773
:100C2000D7FE08BD71B901210AB141F00401022BC0
:100C30000AD0B0F5A17F0AD3A0F59170064B43F816
:100C4000301070470321EFE741F02001F1E7203039
:100C5000024B43F83010704700200540001005405B
:100C6000B0F5A17F09D3094AA0F5917052F8303050
:100C700043F0010342F830307047054A203052F803
:100C8000303043F0010342F8303070470020054017
:100C90000010054010B50346B0F5A17F08D3A0F5BC
:100CA00091720D4951F8324014F0010006D110BD87
:100CB00000F12002094951F83240F5E71846FFF7E4
:100CC0001BFEFFF7A9FF14F0E00F03D10123B0FBD7
:100CD000F3F0ECE70223FAE700200540001005409E
:100CE00070470000012909D1C0EBC000044B03EBA1
:100CF00080031A69137DDBB2042BFBD0704700BF61
:100D00000000001070B50446074EC500C0EBC003DC
:100D100006EB83039888FFF7A3FF2D1B56F82530B9
:100D20006C229A6170BD00BF000000102DE9F041F7
:100D3000044688460B4DC600C0EBC0039F0005EB80
:100D400083039888FFF7A6FFB0FBF8F1EB594A0838
:100D50001A61361B55F826301A69891A5961BDE89F
:100D6000F08100BF00000010034B984201D08320A7
:100D70007047A520704700BF00500C40044B9842BC
:100D800002D040F2022070474FF4F170704700BF6C
:100D900000500C40036823F47F43090289B21943D1
:100DA00001600261704738B505460C46FFF7E6FF63
:100DB000FFF770FF02224FF0FF33002100E0614691
:100DC000A3420DD901F1010C01FB0223B0FBF3F3A7
:100DD0009C42F5D2BCF1FF0FF1D902320021EFE7BE
:100DE0002846FFF7D7FF38BD10B50446FFF7BCFF14
:100DF000FFF736FF2046FFF7C1FFFFF731FF6368BB
:100E000023F004036360236823F0FF0343F0070328
:100E1000236002492046FFF7C6FF10BDA0860100EF
:100E20000368027943EA0263026943EA0243826883
:100E300043EA0233C26843EA022343F40063014AEF
:100E4000536470470000054070B58AB004460D46F3
:100E500016464CF250330993062818D0002301227D
:100E600021460420FFF796FE344A536C43F00103F9
:100E700053648DF8084001A92846FFF705FE304B62
:100E80009D4216D9019B13F0400F03D0FEE7FFF7F8
:100E90005DFDE3E713F0800F05D023F0800301939D
:100EA0000025012407E0049B01330493012500245D
:100EB00001E000252C4601A8FFF7B2FF1F4B1B6C79
:100EC00013F0010FFAD00023012209210420FFF7BB
:100ED00061FE8CB14CF250330993099B591E099164
:100EE000002BFAD1019B43F08003019301A8FFF787
:100EF00097FF06BB0AB070BD002DFAD04CF25033FC
:100F00000993099B5A1E0992002BFAD1049B013BBD
:100F1000049301A8FFF784FFEBE70A4800EB840184
:100F2000CB788A78497810F82400FFF733FE013433
:100F3000112CF2D9DEE70024FAE700BF00000540DB
:100F400080778E067019001A094B984209D003F574
:100F50008053984207D0A3F58023984205D1012001
:100F6000704702207047032070470020704700BF81
:100F700000100C4030B583B00446FFF7E5FF0123B5
:100F80001A4619460E4D35F81000FFF74BFE0723A1
:100F9000A3600023E3656360E3602362E364636549
:100FA0002365084B9C4206D00323E3601023A36211
:100FB000019B03B030BD00232361A3690193F3E7D4
:100FC000C019001A002008402DE9F04F83B00546F3
:100FD0008846FFF7B9FF324B33F81000FFF75AFE8F
:100FE00006464FF0FF3701244FF0000AA146D346D2
:100FF00001952AE042424B1C17E00AB31746AA4665
:10100000A1469B460135AC421ED931093007A4FBED
:10101000000C621908FB02F2002304FB01C100F07E
:1010200027FA02460B460028E4DB9742EAD3002B5E
:10103000E8D0190CE6D1022BDFD8002DDDD0E1E796
:101040001746AA46A1469B4601341FB10F2C01D872
:101050000025D8E7019DBBF1000F1CD0EA6842F0E3
:101060008002EA605FFA8BF22A60CBF307226A60A3
:10107000EA6822F08002EA604FEA0912D2B20AF06E
:101080000F010A43AA62320909FB02F2D1440BFBA9
:1010900009F9B2FBF9FB584603B0BDE8F08F00BF79
:1010A000B819001A08B50B4A0B4B9A6003F5007388
:1010B0001B6C03F47F63202B04D0FFF7CDFAFFF7FE
:1010C0005BFA08BD044AD2F8883043F47003C2F8D2
:1010D0008830F2E70000001A00ED00E0044B1860D1
:1010E000044A136843F0010313600120704700BFF6
:1010F00038000010001000E010B40C4C00EB800031
:1011000004EB000C205608709CF9011011709CF93A
:1011100002201A709CF90320019B1A709CF904208C
:10112000029B1A705DF8044B704700BFC819001A83
:1011300010F1020F00F0CB8030B585B00C46B0F155
:10114000FF3F00F0C68000238DF80F308DF80E3081
:101150008DF80D308DF80C308DF80B300DF10B0340
:10116000019303AB00930DF10D030DF10E020DF190
:101170000F01FFF7C1FF052C00F2AE80DFE804F09D
:101180000884274665035548FFF7AAFD0120A1E022
:101190009DF80F109DF80E209DF90D3063F02F0380
:1011A000DBB202EB41124E4941F822309DF80C307F
:1011B0009DF90B10012000FA01F1484C03F5006382
:1011C00054F8232022EA010244F8232082E09DF80B
:1011D0000F109DF80E209DF90D3063F03F03DBB238
:1011E00002EB41123E4941F822309DF80C309DF946
:1011F0000B10012000FA01F1384C03F5006354F89C
:10120000232022EA010244F8232063E09DF80F1016
:101210009DF80E209DF90D3063F02703DBB202EB41
:1012200041122F4941F822309DF80C309DF90B10E6
:10123000012000FA01F1294C03F5006354F8232042
:1012400022EA010244F8232044E09DF80F109DF8A3
:101250000E209DF90D3063F03703DBB202EB411233
:101260001F4941F822309DF80C309DF90B100120E8
:1012700000FA01F1194C03F5006354F8232022EA27
:10128000010244F8232025E09DF80F109DF80E2060
:101290009DF90D3063F02F03DBB202EB41121049D0
:1012A00041F822309DF80C009DF90B1001228A4074
:1012B0000A4B00F5006C53F82C502A4343F82C20BD
:1012C000C9B203EB401300225A54204602E000202A
:1012D0007047002005B030BD0020FBE700400F4004
:1012E00000600840014BD3E9000170476000001026
:1012F00020B14FF0E02307221A6170474FF0E0233E
:1013000000221A617047000010B550EA010328D08E
:10131000421E41F1FF33322A73F1000326D2144BEF
:1013200018605960134B1C68A4FB000C4FF47A72D0
:10133000002304FB01C100F09BF80138B0F1807F6D
:101340000AD24FF0E02358610B4AE02182F82310C3
:1013500000229A6107221A610120FFF7C9FF0120CC
:1013600010BD0020FFF7C4FF0020F9E70020F7E7D9
:10137000400000104800001000ED00E008B5074AEA
:1013800013685168013341F1000113605160044B4F
:101390001B6813B1034A1068984708BD600000102D
:1013A000580000105400001008B5044B1B681B685F
:1013B000DB68034A1068984708BD00BF680000104A
:1013C0006C00001008B5FFF7B1F91A4B1868FFF769
:1013D00085FE01200021FFF797FF05210020FFF780
:1013E000A7FE00212420FFF7A3FE00212520FFF700
:1013F0009FFE00212620FFF79BFE00212720FFF7FC
:1014000097FE01212820FFF793FE01212920FFF7F5
:101410008FFE01212A20FFF78BFE01212B20FFF7F1
:1014200087FE01212C20FFF783FE01212D20FFF7ED
:101430007FFE08BD480000102DE9F84380460F46A6
:10144000FFF750FF05460E46FFF74CFF441B61EBCC
:101450000609064BD3E900234046394600F008F858
:10146000844279EB0101EFD3BDE8F883400000101E
:1014700053B94AB9002908BF00281CBF4FF0FF31FB
:101480004FF0FF3000F06AB9ADF1080C6DE904CE01
:1014900000F006F8DDF804E0DDE9022304B070474F
:1014A0002DE9F047089D0E4604460F46002B4AD111
:1014B00094468C45B2FA82F260D942B1C2F120035F
:1014C000974020FA03F30CFA02FC1F4394404FEAC2
:1014D0001C4E1FFA8CF6B7FBFEF1230C0EFB1177A6
:1014E00043EA074301FB06F098420AD91CEB0303C9
:1014F00001F1FF3780F01581984240F212810239E4
:1015000063441B1AA4B2B3FBFEF00EFB103344EA93
:10151000034400FB06F6A6420AD91CEB040400F1C2
:10152000FF3380F00081A64240F2FD80644402381F
:1015300040EA0140A41B00211DB1D4400023C5E9AD
:101540000043BDE8F0878B4205D90DB1C5E9000124
:1015500000210846F5E7B3FA83F1002946D1B342EA
:1015600002D3824200F2F580841A66EB0302012066
:101570001746002DE5D0C5E90047E2E7002A40F014
:101580009380A1EB0C034FEA1C471FFA8CFE01214C
:10159000B3FBF7F607FB1630230C43EA00430EFBC0
:1015A00006F0984208D91CEB030306F1FF3802D27B
:1015B000984200F2D08046461B1AA4B2B3FBF7F063
:1015C00007FB103344EA03440EFB00FEA64508D98E
:1015D0001CEB040400F1FF3302D2A64500F2B680F2
:1015E0001846A4EB0E0440EA0640A5E7C1F1200727
:1015F0008B4022FA07FC4CEA030C06FA01FE20FAA3
:1016000007F426FA07F344EA0E0400FA01F84FEA59
:101610001C404FEA1449B3FBF0FE1FFA8CF600FBA6
:101620001E3349EA03430EFB06F9994502FA01F21B
:101630000BD91CEB03030EF1FF3A80F0858099452E
:1016400040F28280AEF1020E6344A3EB0909A4B21A
:10165000B9FBF0F300FB139944EA094403FB06F6D7
:10166000A64208D91CEB040403F1FF3068D2A6425D
:1016700066D9023B644443EA0E40A41BA0FB02E689
:10168000B4427346B14652D34FD05DB1B8EB0302BA
:1016900064EB090404FA07F722FA01F31F43CC4074
:1016A000C5E9007400214CE7C2F1200120FA01F3E2
:1016B0000CFA02FC26FA01F1964033434FEA1C472C
:1016C0001FFA8CFEB1FBF7F007FB1016190C41EA6C
:1016D000064100FB0EF68E4204FA02F408D91CEB18
:1016E000010100F1FF382DD28E422BD9023861441E
:1016F000891B9BB2B1FBF7F607FB161143EA0143C6
:1017000006FB0EF1994208D91CEB030306F1FF38E2
:1017100014D2994212D9023E63445B1A46EA004150
:1017200036E73946EDE6184602E7F045ADD2BEEBA6
:10173000020366EB0C060138B146A6E74646ECE725
:10174000034698E74046D3E7D6467EE7644402382E
:1017500047E708460DE7023E63442DE7704700BFA8
:1017600070B50F4B0F4DAB42A3EB050607D0B6107B
:10177000002455F8043B01349847A642F9D8FEF7F7
:101780001CFE094D094B5E1BAB424FEAA60606D074
:10179000002455F8043B01349847A642F9D870BD9F
:1017A0000003001A0003001A0003001A0003001AC5
:1017B000830730B547D0541E002A3ED0CAB2034634
:1017C00001E0013C39D303F8012B9D07F9D1032C2B
:1017D0002CD9CDB205EB05250F2C05EB054535D9E8
:1017E000A4F1100222F00F0C03F1100EE6444FEAB0
:1017F000121C1A46C2E90055C2E902551032724560
:10180000F8D10CF1010214F00C0F03EB021204F0FA
:101810000F0C13D0ACF1040323F00303043313447F
:1018200042F8045B9342FBD10CF003042CB1C9B223
:101830001C4403F8011BA342FBD130BD6446134690
:10184000002CF4D1F9E703461446C0E71A46A44633
:10185000E0E700BF030003030304050F05100305C1
:10186000030603070208000000040008000901093C
:10187000050005010502000E010B010C001BB7005D
:101880000000000002004400020144000202440083
:10189000020A4000020B4000020C40000100500010
:1018A00001015000010250000106500006015000E5
:1018B00006045000060550000607540006085400B0
:1018C00006095000060A5000060B5000060C500096
:1018D0000F04F0000103D5000104D5000701160034
:1018E000070256000203520002045200090552008A
:1018F0000906570006025700010F0101030F0F0FE1
:10190000FF000000000005000A002000240009007C
:101910004000400005006000A6000400C000C300B5
:101920000200E000E00001000001000103002001CE
:1019300020010600400140010C0042014201190053
:10194000620162011300820182011200A201A20160
:101950001100C201C2011000E201E2010F00020207
:1019600002020E00220222020D00230223021C00AA
:1019700000010100090901000A0901000107010134
:1019800002090100060901000C0901010D0901000D
:101990000E0901000F0901001009010011090100E1
:1019A00012090100130901001411010019110100AD
:1019B0001A1101001B110100C201A2018201620182
:1019C00081008200A100A2000401000201070500BD
:1019D000030D0105000108040200020204030002D5
:1019E000030400000200070400030C0302040509BD
:1019F00003010405080203040503020404050406A8
:101A00000C000208060B0003070609000305060781
:101A100004050F0604000303040400020404050087
:101A200002050406000206040804050C040A040565
:101A30000E010300000A011400000F011200000D46
:101A4000011100000C0110000003070700030F0044
:101A5000010000010000000000060A00030606085D
:101A60000405100605000304060100030004090430
:101A7000050D010400000B010F0000020100000031
:101A8000040101000008010200000901060001092B
:101A9000020004050002010405010202040502021D
:101AA0000A00000E020B00010B020C00010C0000EA
:081AB000F0F9FF7F01000000C6
:101AB80000100A4022000000E50C001A0000000097
:101AC80000000000000000000000000000000E40C0
:101AD80001000000E50C001A0000000000000000F2
:101AE800000000000000000000CB280CFFFFFFFFF3
:081AF8000100000000000000E5
:040000051A000331A9
:00000001FF
